:100000000C9434000C943E000C943E000C943E0082
:100010000C943E000C943E000C943E000C943E0068
:100020000C943E000C943E000C943E000C943E0058
:100030000C943E000C943E000C943E000C943E0048
:100040000C943E000C943E000C943E000C943E0038
:100050000C943E000C943E000C943E000C943E0028
:100060000C943E000C943E0011241FBECFEFD8E04C
:10007000DEBFCDBF0E944D010C940E030C94000016
:1000800080E28AB981E084BD88E085BD84B5806264
:1000900084BD85B5856085BD8CE987BD089580E602
:1000A00080937C0087E880937A000895EF92FF9216
:1000B0000F931F93CF93DF9300D000D000D0CDB724
:1000C000DEB779014E835D8320E030E04AEF54E4EF
:1000D00069837A838B839C8369817A818B819C81FC
:1000E0000E94A10220E030E04AEF54E469837A8361
:1000F0008B839C8369817A818B819C810E947801AA
:1001000069837A838B839C8369817A818B819C81CB
:100110000E94E401709389006093880020E030E041
:100120004AEF54E4E982FA828E818B838D818C833D
:1001300069817A818B819C810E94A10220E030E05C
:100140004AEF54E469837A838B839C8369817A8143
:100150008B819C810E94780169837A838B839C8345
:1001600069817A818B819C810E94E401462F572FFF
:1001700050938B0040938A0026960FB6F894DEBF0A
:100180000FBECDBFDF91CF911F910F91FF90EF90E8
:100190000895892B19F088E088BD089580E1FCCF8F
:1001A0001AB880E88BB9089589B1082E000C990B14
:1001B00080959095892F881F8827881F90E0089543
:1001C000CF93DF9300D000D0CDB7DEB717B800973C
:1001D000E9F580917C0080937C0080917A008064B6
:1001E00080937A0080917A0086FDFCCF909179000F
:1001F00080917C008E7F80937C00292F30E050E03E
:1002000040E029833A834B835C83CA01B9010E9491
:10021000130220E030E040E85BE369837A838B835C
:100220009C8369817A818B819C810E94A102698370
:100230007A838B839C8369817A818B819C810F90E7
:100240000F900F900F90DF91CF910895019729F6AD
:1002500080917C008160BFCF86E084B9E0E8F0E067
:1002600080EA8083808182608083E1E8F0E088E139
:10027000808380818260808380E49CE99093870002
:100280008093860088EB9BE09093890080938800A0
:1002900090938B0080938A00089500D000D00F9235
:1002A000CDB7DEB70E94D0000E944F000E942C0103
:1002B0000E94400081E090E00E94E0008B018D836D
:1002C000998390E080E00E94E00098014D8159817F
:1002D00069837A838B839C8369817A818B819C81FA
:1002E0000E9456000E94D4000E94C900E3CF5058DB
:1002F000BB27AA270E948F010C9467020E94590213
:1003000038F00E94600220F039F49F3F19F426F47F
:100310000C9456020EF4E095E7FB0C945002E92F82
:100320000E94780258F3BA1762077307840795078B
:1003300020F079F4A6F50C949A020EF4E0950B2EB9
:10034000BA2FA02D0B01B90190010C01CA01A00127
:100350001124FF27591B99F0593F50F4503E68F182
:100360001A16F040A22F232F342F4427585FF3CFC3
:10037000469537952795A795F0405395C9F77EF494
:100380001F16BA0B620B730B840BBAF09150A1F0DD
:10039000FF0FBB1F661F771F881FC2F70EC0BA0F63
:1003A000621F731F841F48F4879577956795B795EB
:1003B000F7959E3F08F0B0CF9395880F08F09927E6
:1003C000EE0F9795879508950E94800288F09F57B9
:1003D00098F0B92F9927B751B0F0E1F0660F771F69
:1003E000881F991F1AF0BA95C9F714C0B13091F05F
:1003F0000E949A02B1E008950C949A02672F782F18
:100400008827B85F39F0B93FCCF386957795679523
:10041000B395D9F73EF490958095709561957F4F8F
:100420008F4F9F4F0895E89409C097FB3EF4909535
:100430008095709561957F4F8F4F9F4F9923A9F0BD
:10044000F92F96E9BB279395F6958795779567954C
:10045000B795F111F8CFFAF4BB0F11F460FF1BC090
:100460006F5F7F4F8F4F9F4F16C0882311F096E923
:1004700011C0772321F09EE8872F762F05C06623D1
:1004800071F096E8862F70E060E02AF09A95660F8A
:10049000771F881FDAF7880F9695879597F9089543
:1004A00097F99F6780E870E060E008959FEF80EC27
:1004B000089500240A9416161706180609060895CA
:1004C00000240A9412161306140605060895092E30
:1004D0000394000C11F4882352F0BB0F40F4BF2B9F
:1004E00011F460FF04C06F5F7F4F8F4F9F4F0895DF
:1004F00057FD9058440F551F59F05F3F71F04795D5
:10050000880F97FB991F61F09F3F79F087950895B9
:10051000121613061406551FF2CF4695F1DF08C0D8
:10052000161617061806991FF1CF869571056105F5
:1005300008940895E894BB2766277727CB0197F99D
:1005400008950E94B4020C9467020E94590238F088
:100550000E94600220F0952311F00C9450020C943C
:10056000560211240C949B020E94780270F3959F0E
:10057000C1F3950F50E0551F629FF001729FBB279A
:10058000F00DB11D639FAA27F00DB11DAA1F649F36
:100590006627B00DA11D661F829F2227B00DA11DE9
:1005A000621F739FB00DA11D621F839FA00D611D6F
:1005B000221F749F3327A00D611D231F849F600D90
:1005C000211D822F762F6A2F11249F5750409AF0B9
:1005D000F1F088234AF0EE0FFF1FBB1F661F771F45
:1005E000881F91505040A9F79E3F510580F00C9410
:1005F00050020C949B025F3FE4F3983ED4F386953F
:1006000077956795B795F795E7959F5FC1F7FE2BAF
:10061000880F911D9695879597F90895F894FFCFC7
:00000001FF
